:020000040000FA
:020000004E2888
:040002000034003492
:0200080040298D
:04000C002000820747
:100010001634163416341634163415341434133496
:100020001234113410340F340E340D340C340B34BC
:100030002000820718341834183419341A341B3449
:100040001C341D341E341F34203421342234233414
:1000500024342534200082072734243422342034E9
:100060001E341C341A341834163414341234103438
:100070000E340C340A340934200082070034113461
:1000800022343334443455346634773488349934E4
:10009000AA34BB34CC34DD34EE34FF3421001910E3
:1000A00099141911991519169912191799132200F3
:1000B0001D129D111D119D109D131D139D121D10CC
:1000C00022009C0121001D149D141D119D111D1263
:1000D0009D121D139D1721001E129E121E139E13AA
:1000E0001E111E109E1021001F129F121F139F131E
:1000F0001F149F141F159F1523008C0123008D01D1
:1001000022008C012100FF308C00240000308C0084
:1001100026008C0127008C0125008C0122008D0116
:10012000210000308D00240000308D0026008D015C
:1001300027008D0125008D0122008E01210018303D
:100140008E00240000308E0026008E0127008E01D4
:1001500025008E0123009F1123001E111E121E1365
:1001600023000F309B0023009E171E179E121E16A1
:100170009E111E119E141E1023009D171D139D120B
:100180001D129D111D119D101D1023009E1624008F
:100190001430920024009513151395161516951515
:1001A000151595141510240096171613961216128D
:1001B00096111611961016142400971317139716FC
:1001C000171297111715971017102400941714136E
:1001D0009416141294111411941014102100151077
:1001E00095101511951515129512151795132000D8
:1001F0000B128B120B178B1721001110911011117C
:1002000091151112911211139113210012109210D5
:10021000121192111212921212139213200018103E
:100220009811981218122000FF309B00250008300A
:1002300091002500083098002500930113109314B5
:10024000131593151312931225009A011A109A147C
:100250001A159A151A129A122000911020009C115A
:100260001C129C121C131C151C109C142000911CA9
:1002700036299110210018308E0020008D01D129DF
:100280002000A6000308A700200091195021240097
:100290001516200091112000270883002608090068
:1002A000240015122400941A58292400110808006B
:1002B0002000AB1B8C2920002B1B95292000AB1A9A
:1002C000A62920002B1AB729240011082000AA0013
:1002D0002A08443A20000319802120002A08543AB1
:1002E00020000319832120002A08463A2000031920
:1002F000862120002A08423A200003198921572923
:100300002000AB17080020002B1708002000AB16B8
:10031000080020002B1608002000AB132000AE01BF
:10032000240011082000AE00572920002B132000C4
:10033000A901240011082000A9002000A936A9362F
:10034000A936A93629082A20AF0057292000AB1268
:100350002000AC01240011082000AC002000AC36C5
:10036000AC36AC36AC362C080620AE00572920003F
:100370002B122000AD01240011082000AD00200048
:10038000AD36AD36AD36AD362D081820AE00572946
:1003900008000800080020008D13D12920008D17C7
:1003A000D12920002E082500980020002F082500C4
:1003B000910020000C080F393C202000B0003008CC
:0603C00020008D00D12990
:020000040001F9
:02000E00E40903
:02001000FF1ED1
:00000001FF
