:020000040000FA
:020000000528D1
:040002000034003492
:080008000728C320672820002F
:10001000A3000308A400911A202091120B191920A3
:100020000B112000240883002308090020002E1053
:10003000052820002E14A0280800200095010800A3
:100040002000A00A2008A10001302106031D2C2851
:100050001D20230019082000A500200002302106E1
:10006000031D3628230019082000A60020000330B5
:100070002106031D3F28230019082000A7002000A7
:1000800004302106031D4828230019082000A80079
:10009000200005302106031D5128230019082000E7
:1000A000A900200006302106031D080023001908BE
:1000B0002000AA002000A001221408001F30240004
:1000C0001605031D5E28240014196328080020006B
:1000D000221C672820002210200024302506031D42
:1000E0006728200046302706031983284230270658
:1000F00003198D28743027060319962853302706D4
:100100000319A028672846302000AC003030AB002F
:10011000200028082000AD00A92842302000AC00B3
:100120003030AB0020002808AD00A9285430200052
:10013000AC003030AB00200028082000AD00A9281A
:1001400044302000AC003030AB0017302000AD0050
:10015000A928240016141618AB282000AB352B084C
:10016000240091005E2020002C08240091005E20D5
:1001700020002D08240091005E2024001615200088
:060180002E181628672866
:0A01860021007A30990022001D12BA
:100190009D111D119D1021009D0121009E01210036
:1001A0009F0123008C0123008D0122008C0121007E
:1001B000FF308C00003024008C0026008C012700CA
:1001C0008C0125008C0122008D01210000308D0062
:1001D000003024008D0026008D0127008D012500B0
:1001E0008D0122008E01983021008E000030240005
:1001F0008E0026008E0127008E0125008E0123002F
:100200009F11230019309B0023001E111E121E1384
:1002100023001D161D139D1723009E1624009516FE
:10022000151095101511951524001612961116111A
:1002300096101610240094171417240027309200EB
:1002400021001514951415159511151295121517F1
:10025000951320000B128B160B138B13210011101A
:100260009110111191111112911611139113210076
:1002700012109211121220001810981198121812D0
:1002800020009C151C169C161C171C111C149C1479
:1002900020009B01250013109310131193112500CA
:1002A0001A109A101A119A1120009112911091119E
:0E02B0002000AF01A20120000B178B170800E1
:020000040001F9
:02000E00E40903
:02001000FF1ED1
:00000001FF
